{
  "_format": "hh-sol-artifact-1",
  "contractName": "ERC721Staking",
  "sourceName": "contracts/ERC721Staking.sol",
  "abi": [
    {
      "inputs": [
        {
          "internalType": "contract IERC721",
          "name": "_nftCollection",
          "type": "address"
        },
        {
          "internalType": "contract IERC20",
          "name": "_rewardsToken",
          "type": "address"
        }
      ],
      "stateMutability": "nonpayable",
      "type": "constructor"
    },
    {
      "anonymous": false,
      "inputs": [
        {
          "indexed": true,
          "internalType": "address",
          "name": "previousOwner",
          "type": "address"
        },
        {
          "indexed": true,
          "internalType": "address",
          "name": "newOwner",
          "type": "address"
        }
      ],
      "name": "OwnershipTransferred",
      "type": "event"
    },
    {
      "inputs": [],
      "name": "claimRewards",
      "outputs": [],
      "stateMutability": "nonpayable",
      "type": "function"
    },
    {
      "inputs": [],
      "name": "nftCollection",
      "outputs": [
        {
          "internalType": "contract IERC721",
          "name": "",
          "type": "address"
        }
      ],
      "stateMutability": "view",
      "type": "function"
    },
    {
      "inputs": [],
      "name": "owner",
      "outputs": [
        {
          "internalType": "address",
          "name": "",
          "type": "address"
        }
      ],
      "stateMutability": "view",
      "type": "function"
    },
    {
      "inputs": [],
      "name": "renounceOwnership",
      "outputs": [],
      "stateMutability": "nonpayable",
      "type": "function"
    },
    {
      "inputs": [],
      "name": "rewardsToken",
      "outputs": [
        {
          "internalType": "contract IERC20",
          "name": "",
          "type": "address"
        }
      ],
      "stateMutability": "view",
      "type": "function"
    },
    {
      "inputs": [
        {
          "internalType": "uint256",
          "name": "_rate",
          "type": "uint256"
        }
      ],
      "name": "setRewardsPerHour",
      "outputs": [],
      "stateMutability": "nonpayable",
      "type": "function"
    },
    {
      "inputs": [
        {
          "internalType": "uint256[]",
          "name": "_tokenIds",
          "type": "uint256[]"
        }
      ],
      "name": "stake",
      "outputs": [],
      "stateMutability": "nonpayable",
      "type": "function"
    },
    {
      "inputs": [
        {
          "internalType": "uint256",
          "name": "",
          "type": "uint256"
        }
      ],
      "name": "stakerAddress",
      "outputs": [
        {
          "internalType": "address",
          "name": "",
          "type": "address"
        }
      ],
      "stateMutability": "view",
      "type": "function"
    },
    {
      "inputs": [
        {
          "internalType": "address",
          "name": "",
          "type": "address"
        }
      ],
      "name": "stakers",
      "outputs": [
        {
          "internalType": "uint256",
          "name": "amountStaked",
          "type": "uint256"
        },
        {
          "internalType": "uint256",
          "name": "timeOfLastUpdate",
          "type": "uint256"
        },
        {
          "internalType": "uint256",
          "name": "unclaimedRewards",
          "type": "uint256"
        }
      ],
      "stateMutability": "view",
      "type": "function"
    },
    {
      "inputs": [],
      "name": "storeRewards",
      "outputs": [],
      "stateMutability": "nonpayable",
      "type": "function"
    },
    {
      "inputs": [
        {
          "internalType": "address",
          "name": "newOwner",
          "type": "address"
        }
      ],
      "name": "transferOwnership",
      "outputs": [],
      "stateMutability": "nonpayable",
      "type": "function"
    },
    {
      "inputs": [
        {
          "internalType": "address",
          "name": "_user",
          "type": "address"
        }
      ],
      "name": "userStakeInfo",
      "outputs": [
        {
          "internalType": "uint256",
          "name": "_tokensStaked",
          "type": "uint256"
        },
        {
          "internalType": "uint256",
          "name": "_availableRewards",
          "type": "uint256"
        }
      ],
      "stateMutability": "view",
      "type": "function"
    },
    {
      "inputs": [
        {
          "internalType": "uint256[]",
          "name": "_tokenIds",
          "type": "uint256[]"
        }
      ],
      "name": "withdraw",
      "outputs": [],
      "stateMutability": "nonpayable",
      "type": "function"
    }
  ],
  "bytecode": "0x60c0604052620186a06002553480156200001857600080fd5b50604051620023e4380380620023e483398181016040528101906200003e9190620001d5565b6200005e62000052620000db60201b60201c565b620000e360201b60201c565b600180819055508173ffffffffffffffffffffffffffffffffffffffff1660a08173ffffffffffffffffffffffffffffffffffffffff1660601b815250508073ffffffffffffffffffffffffffffffffffffffff1660808173ffffffffffffffffffffffffffffffffffffffff1660601b815250505050620002a6565b600033905090565b60008060009054906101000a900473ffffffffffffffffffffffffffffffffffffffff169050816000806101000a81548173ffffffffffffffffffffffffffffffffffffffff021916908373ffffffffffffffffffffffffffffffffffffffff1602179055508173ffffffffffffffffffffffffffffffffffffffff168173ffffffffffffffffffffffffffffffffffffffff167f8be0079c531659141344cd1fd0a4f28419497f9722a3daafe3b4186f6b6457e060405160405180910390a35050565b600081519050620001b88162000272565b92915050565b600081519050620001cf816200028c565b92915050565b60008060408385031215620001e957600080fd5b6000620001f985828601620001be565b92505060206200020c85828601620001a7565b9150509250929050565b6000620002238262000252565b9050919050565b6000620002378262000216565b9050919050565b60006200024b8262000216565b9050919050565b600073ffffffffffffffffffffffffffffffffffffffff82169050919050565b6200027d816200022a565b81146200028957600080fd5b50565b62000297816200023e565b8114620002a357600080fd5b50565b60805160601c60a05160601c6120f6620002ee6000396000818161037c015281816104ba015281816109d70152610d1d0152600081816108080152610ebc01526120f66000f3fe608060405234801561001057600080fd5b50600436106100cf5760003560e01c80638da5cb5b1161008c578063983d95ce11610066578063983d95ce146101dd578063b5a5e509146101f9578063d1af0c7d14610215578063f2fde38b14610233576100cf565b80638da5cb5b1461015d5780639168ae721461017b57806394067045146101ad576100cf565b80630fbf0a93146100d4578063372500ab146100f05780634ead4327146100fa5780635982f7a81461012b5780636588103b14610135578063715018a614610153575b600080fd5b6100ee60048036038101906100e99190611647565b61024f565b005b6100f86106d5565b005b610114600480360381019061010f91906115f5565b61084f565b604051610122929190611b27565b60405180910390f35b6101336108a7565b005b61013d6109d5565b60405161014a919061198f565b60405180910390f35b61015b6109f9565b005b610165610a0d565b60405161017291906118f9565b60405180910390f35b610195600480360381019061019091906115f5565b610a36565b6040516101a493929190611b50565b60405180910390f35b6101c760048036038101906101c291906116b5565b610a60565b6040516101d491906118f9565b60405180910390f35b6101f760048036038101906101f29190611647565b610a93565b005b610213600480360381019061020e91906116b5565b610ea8565b005b61021d610eba565b60405161022a9190611974565b60405180910390f35b61024d600480360381019061024891906115f5565b610ede565b005b60026001541415610295576040517f08c379a000000000000000000000000000000000000000000000000000000000815260040161028c90611aec565b60405180910390fd5b60026001819055506000600360003373ffffffffffffffffffffffffffffffffffffffff1673ffffffffffffffffffffffffffffffffffffffff1681526020019081526020016000206000015411156103505760006102f333610f62565b905080600360003373ffffffffffffffffffffffffffffffffffffffff1673ffffffffffffffffffffffffffffffffffffffff16815260200190815260200160002060020160008282546103479190611bb9565b92505081905550505b600082829050905060005b81811015610628573373ffffffffffffffffffffffffffffffffffffffff167f000000000000000000000000000000000000000000000000000000000000000073ffffffffffffffffffffffffffffffffffffffff16636352211e8686858181106103ef577f4e487b7100000000000000000000000000000000000000000000000000000000600052603260045260246000fd5b905060200201356040518263ffffffff1660e01b81526004016104129190611b0c565b60206040518083038186803b15801561042a57600080fd5b505afa15801561043e573d6000803e3d6000fd5b505050506040513d601f19601f82011682018060405250810190610462919061161e565b73ffffffffffffffffffffffffffffffffffffffff16146104b8576040517f08c379a00000000000000000000000000000000000000000000000000000000081526004016104af90611a2c565b60405180910390fd5b7f000000000000000000000000000000000000000000000000000000000000000073ffffffffffffffffffffffffffffffffffffffff166323b872dd333087878681811061052f577f4e487b7100000000000000000000000000000000000000000000000000000000600052603260045260246000fd5b905060200201356040518463ffffffff1660e01b815260040161055493929190611914565b600060405180830381600087803b15801561056e57600080fd5b505af1158015610582573d6000803e3d6000fd5b5050505033600460008686858181106105c4577f4e487b7100000000000000000000000000000000000000000000000000000000600052603260045260246000fd5b90506020020135815260200190815260200160002060006101000a81548173ffffffffffffffffffffffffffffffffffffffff021916908373ffffffffffffffffffffffffffffffffffffffff1602179055508061062190611d91565b905061035b565b5080600360003373ffffffffffffffffffffffffffffffffffffffff1673ffffffffffffffffffffffffffffffffffffffff168152602001908152602001600020600001600082825461067b9190611bb9565b9250508190555042600360003373ffffffffffffffffffffffffffffffffffffffff1673ffffffffffffffffffffffffffffffffffffffff1681526020019081526020016000206001018190555050600180819055505050565b6000600360003373ffffffffffffffffffffffffffffffffffffffff1673ffffffffffffffffffffffffffffffffffffffff1681526020019081526020016000206002015461072333610f62565b61072d9190611bb9565b905060008111610772576040517f08c379a000000000000000000000000000000000000000000000000000000000815260040161076990611a6c565b60405180910390fd5b42600360003373ffffffffffffffffffffffffffffffffffffffff1673ffffffffffffffffffffffffffffffffffffffff168152602001908152602001600020600101819055506000600360003373ffffffffffffffffffffffffffffffffffffffff1673ffffffffffffffffffffffffffffffffffffffff1681526020019081526020016000206002018190555061084c33827f000000000000000000000000000000000000000000000000000000000000000073ffffffffffffffffffffffffffffffffffffffff166110109092919063ffffffff16565b50565b600080600360008473ffffffffffffffffffffffffffffffffffffffff1673ffffffffffffffffffffffffffffffffffffffff1681526020019081526020016000206000015461089e84611096565b91509150915091565b6000600360003373ffffffffffffffffffffffffffffffffffffffff1673ffffffffffffffffffffffffffffffffffffffff168152602001908152602001600020600201546108f533610f62565b6108ff9190611bb9565b905060008111610944576040517f08c379a000000000000000000000000000000000000000000000000000000000815260040161093b90611a8c565b60405180910390fd5b42600360003373ffffffffffffffffffffffffffffffffffffffff1673ffffffffffffffffffffffffffffffffffffffff1681526020019081526020016000206001018190555080600360003373ffffffffffffffffffffffffffffffffffffffff1673ffffffffffffffffffffffffffffffffffffffff1681526020019081526020016000206002018190555050565b7f000000000000000000000000000000000000000000000000000000000000000081565b610a01611190565b610a0b600061120e565b565b60008060009054906101000a900473ffffffffffffffffffffffffffffffffffffffff16905090565b60036020528060005260406000206000915090508060000154908060010154908060020154905083565b60046020528060005260406000206000915054906101000a900473ffffffffffffffffffffffffffffffffffffffff1681565b60026001541415610ad9576040517f08c379a0000000000000000000000000000000000000000000000000000000008152600401610ad090611aec565b60405180910390fd5b60026001819055506000600360003373ffffffffffffffffffffffffffffffffffffffff1673ffffffffffffffffffffffffffffffffffffffff1681526020019081526020016000206000015411610b66576040517f08c379a0000000000000000000000000000000000000000000000000000000008152600401610b5d906119ec565b60405180910390fd5b6000610b7133610f62565b905080600360003373ffffffffffffffffffffffffffffffffffffffff1673ffffffffffffffffffffffffffffffffffffffff1681526020019081526020016000206002016000828254610bc59190611bb9565b92505081905550600083839050905060005b81811015610dfa573373ffffffffffffffffffffffffffffffffffffffff1660046000878785818110610c33577f4e487b7100000000000000000000000000000000000000000000000000000000600052603260045260246000fd5b90506020020135815260200190815260200160002060009054906101000a900473ffffffffffffffffffffffffffffffffffffffff1673ffffffffffffffffffffffffffffffffffffffff1614610c8957600080fd5b600060046000878785818110610cc8577f4e487b7100000000000000000000000000000000000000000000000000000000600052603260045260246000fd5b90506020020135815260200190815260200160002060006101000a81548173ffffffffffffffffffffffffffffffffffffffff021916908373ffffffffffffffffffffffffffffffffffffffff1602179055507f000000000000000000000000000000000000000000000000000000000000000073ffffffffffffffffffffffffffffffffffffffff166323b872dd3033888886818110610d92577f4e487b7100000000000000000000000000000000000000000000000000000000600052603260045260246000fd5b905060200201356040518463ffffffff1660e01b8152600401610db793929190611914565b600060405180830381600087803b158015610dd157600080fd5b505af1158015610de5573d6000803e3d6000fd5b5050505080610df390611d91565b9050610bd7565b5080600360003373ffffffffffffffffffffffffffffffffffffffff1673ffffffffffffffffffffffffffffffffffffffff1681526020019081526020016000206000016000828254610e4d9190611c9a565b9250508190555042600360003373ffffffffffffffffffffffffffffffffffffffff1673ffffffffffffffffffffffffffffffffffffffff168152602001908152602001600020600101819055505050600180819055505050565b610eb0611190565b8060028190555050565b7f000000000000000000000000000000000000000000000000000000000000000081565b610ee6611190565b600073ffffffffffffffffffffffffffffffffffffffff168173ffffffffffffffffffffffffffffffffffffffff161415610f56576040517f08c379a0000000000000000000000000000000000000000000000000000000008152600401610f4d906119cc565b60405180910390fd5b610f5f8161120e565b50565b600080600360008473ffffffffffffffffffffffffffffffffffffffff1673ffffffffffffffffffffffffffffffffffffffff16815260200190815260200160002060405180606001604052908160008201548152602001600182015481526020016002820154815250509050610e106002548260000151836020015142610fea9190611c9a565b610ff49190611c40565b610ffe9190611c40565b6110089190611c0f565b915050919050565b6110918363a9059cbb60e01b848460405160240161102f92919061194b565b604051602081830303815290604052907bffffffffffffffffffffffffffffffffffffffffffffffffffffffff19166020820180517bffffffffffffffffffffffffffffffffffffffffffffffffffffffff83818316178352505050506112d2565b505050565b600080600360008473ffffffffffffffffffffffffffffffffffffffff1673ffffffffffffffffffffffffffffffffffffffff16815260200190815260200160002060000154141561112c57600360008373ffffffffffffffffffffffffffffffffffffffff1673ffffffffffffffffffffffffffffffffffffffff16815260200190815260200160002060020154905061118b565b600061113783610f62565b600360008573ffffffffffffffffffffffffffffffffffffffff1673ffffffffffffffffffffffffffffffffffffffff168152602001908152602001600020600201546111849190611bb9565b9050809150505b919050565b611198611399565b73ffffffffffffffffffffffffffffffffffffffff166111b6610a0d565b73ffffffffffffffffffffffffffffffffffffffff161461120c576040517f08c379a000000000000000000000000000000000000000000000000000000000815260040161120390611a4c565b60405180910390fd5b565b60008060009054906101000a900473ffffffffffffffffffffffffffffffffffffffff169050816000806101000a81548173ffffffffffffffffffffffffffffffffffffffff021916908373ffffffffffffffffffffffffffffffffffffffff1602179055508173ffffffffffffffffffffffffffffffffffffffff168173ffffffffffffffffffffffffffffffffffffffff167f8be0079c531659141344cd1fd0a4f28419497f9722a3daafe3b4186f6b6457e060405160405180910390a35050565b6000611334826040518060400160405280602081526020017f5361666545524332303a206c6f772d6c6576656c2063616c6c206661696c65648152508573ffffffffffffffffffffffffffffffffffffffff166113a19092919063ffffffff16565b90506000815111156113945780806020019051810190611354919061168c565b611393576040517f08c379a000000000000000000000000000000000000000000000000000000000815260040161138a90611acc565b60405180910390fd5b5b505050565b600033905090565b60606113b084846000856113b9565b90509392505050565b6060824710156113fe576040517f08c379a00000000000000000000000000000000000000000000000000000000081526004016113f590611a0c565b60405180910390fd5b611407856114cd565b611446576040517f08c379a000000000000000000000000000000000000000000000000000000000815260040161143d90611aac565b60405180910390fd5b6000808673ffffffffffffffffffffffffffffffffffffffff16858760405161146f91906118e2565b60006040518083038185875af1925050503d80600081146114ac576040519150601f19603f3d011682016040523d82523d6000602084013e6114b1565b606091505b50915091506114c18282866114f0565b92505050949350505050565b6000808273ffffffffffffffffffffffffffffffffffffffff163b119050919050565b6060831561150057829050611550565b6000835111156115135782518084602001fd5b816040517f08c379a000000000000000000000000000000000000000000000000000000000815260040161154791906119aa565b60405180910390fd5b9392505050565b6000813590506115668161207b565b92915050565b60008151905061157b8161207b565b92915050565b60008083601f84011261159357600080fd5b8235905067ffffffffffffffff8111156115ac57600080fd5b6020830191508360208202830111156115c457600080fd5b9250929050565b6000815190506115da81612092565b92915050565b6000813590506115ef816120a9565b92915050565b60006020828403121561160757600080fd5b600061161584828501611557565b91505092915050565b60006020828403121561163057600080fd5b600061163e8482850161156c565b91505092915050565b6000806020838503121561165a57600080fd5b600083013567ffffffffffffffff81111561167457600080fd5b61168085828601611581565b92509250509250929050565b60006020828403121561169e57600080fd5b60006116ac848285016115cb565b91505092915050565b6000602082840312156116c757600080fd5b60006116d5848285016115e0565b91505092915050565b6116e781611cce565b82525050565b60006116f882611b87565b6117028185611b9d565b9350611712818560208601611d5e565b80840191505092915050565b61172781611d16565b82525050565b61173681611d3a565b82525050565b600061174782611b92565b6117518185611ba8565b9350611761818560208601611d5e565b61176a81611e38565b840191505092915050565b6000611782602683611ba8565b915061178d82611e49565b604082019050919050565b60006117a5601983611ba8565b91506117b082611e98565b602082019050919050565b60006117c8602683611ba8565b91506117d382611ec1565b604082019050919050565b60006117eb602183611ba8565b91506117f682611f10565b604082019050919050565b600061180e602083611ba8565b915061181982611f5f565b602082019050919050565b6000611831601c83611ba8565b915061183c82611f88565b602082019050919050565b6000611854601c83611ba8565b915061185f82611fb1565b602082019050919050565b6000611877601d83611ba8565b915061188282611fda565b602082019050919050565b600061189a602a83611ba8565b91506118a582612003565b604082019050919050565b60006118bd601f83611ba8565b91506118c882612052565b602082019050919050565b6118dc81611d0c565b82525050565b60006118ee82846116ed565b915081905092915050565b600060208201905061190e60008301846116de565b92915050565b600060608201905061192960008301866116de565b61193660208301856116de565b61194360408301846118d3565b949350505050565b600060408201905061196060008301856116de565b61196d60208301846118d3565b9392505050565b6000602082019050611989600083018461171e565b92915050565b60006020820190506119a4600083018461172d565b92915050565b600060208201905081810360008301526119c4818461173c565b905092915050565b600060208201905081810360008301526119e581611775565b9050919050565b60006020820190508181036000830152611a0581611798565b9050919050565b60006020820190508181036000830152611a25816117bb565b9050919050565b60006020820190508181036000830152611a45816117de565b9050919050565b60006020820190508181036000830152611a6581611801565b9050919050565b60006020820190508181036000830152611a8581611824565b9050919050565b60006020820190508181036000830152611aa581611847565b9050919050565b60006020820190508181036000830152611ac58161186a565b9050919050565b60006020820190508181036000830152611ae58161188d565b9050919050565b60006020820190508181036000830152611b05816118b0565b9050919050565b6000602082019050611b2160008301846118d3565b92915050565b6000604082019050611b3c60008301856118d3565b611b4960208301846118d3565b9392505050565b6000606082019050611b6560008301866118d3565b611b7260208301856118d3565b611b7f60408301846118d3565b949350505050565b600081519050919050565b600081519050919050565b600081905092915050565b600082825260208201905092915050565b6000611bc482611d0c565b9150611bcf83611d0c565b9250827fffffffffffffffffffffffffffffffffffffffffffffffffffffffffffffffff03821115611c0457611c03611dda565b5b828201905092915050565b6000611c1a82611d0c565b9150611c2583611d0c565b925082611c3557611c34611e09565b5b828204905092915050565b6000611c4b82611d0c565b9150611c5683611d0c565b9250817fffffffffffffffffffffffffffffffffffffffffffffffffffffffffffffffff0483118215151615611c8f57611c8e611dda565b5b828202905092915050565b6000611ca582611d0c565b9150611cb083611d0c565b925082821015611cc357611cc2611dda565b5b828203905092915050565b6000611cd982611cec565b9050919050565b60008115159050919050565b600073ffffffffffffffffffffffffffffffffffffffff82169050919050565b6000819050919050565b6000611d2182611d28565b9050919050565b6000611d3382611cec565b9050919050565b6000611d4582611d4c565b9050919050565b6000611d5782611cec565b9050919050565b60005b83811015611d7c578082015181840152602081019050611d61565b83811115611d8b576000848401525b50505050565b6000611d9c82611d0c565b91507fffffffffffffffffffffffffffffffffffffffffffffffffffffffffffffffff821415611dcf57611dce611dda565b5b600182019050919050565b7f4e487b7100000000000000000000000000000000000000000000000000000000600052601160045260246000fd5b7f4e487b7100000000000000000000000000000000000000000000000000000000600052601260045260246000fd5b6000601f19601f8301169050919050565b7f4f776e61626c653a206e6577206f776e657220697320746865207a65726f206160008201527f6464726573730000000000000000000000000000000000000000000000000000602082015250565b7f596f752068617665206e6f20746f6b656e73207374616b656400000000000000600082015250565b7f416464726573733a20696e73756666696369656e742062616c616e636520666f60008201527f722063616c6c0000000000000000000000000000000000000000000000000000602082015250565b7f43616e2774207374616b6520746f6b656e7320796f7520646f6e2774206f776e60008201527f2100000000000000000000000000000000000000000000000000000000000000602082015250565b7f4f776e61626c653a2063616c6c6572206973206e6f7420746865206f776e6572600082015250565b7f596f752068617665206e6f207265776172647320746f20636c61696d00000000600082015250565b7f596f752068617665206e6f207265776172647320746f2073746f726500000000600082015250565b7f416464726573733a2063616c6c20746f206e6f6e2d636f6e7472616374000000600082015250565b7f5361666545524332303a204552433230206f7065726174696f6e20646964206e60008201527f6f74207375636365656400000000000000000000000000000000000000000000602082015250565b7f5265656e7472616e637947756172643a207265656e7472616e742063616c6c00600082015250565b61208481611cce565b811461208f57600080fd5b50565b61209b81611ce0565b81146120a657600080fd5b50565b6120b281611d0c565b81146120bd57600080fd5b5056fea2646970667358221220d9209f6537ca9d1e8431e524e83d140bdd3545e48b072c813b4d573e9568f9d664736f6c63430008040033",
  "linkReferences": {},
  "deployedLinkReferences": {}
}